{
	"contracts/MyNFT.sol": {
		"MyNFT": {
			"abi": [
				{
					"inputs": [],
					"stateMutability": "nonpayable",
					"type": "constructor"
				},
				{
					"anonymous": false,
					"inputs": [
						{
							"indexed": false,
							"internalType": "uint256",
							"name": "one",
							"type": "uint256"
						},
						{
							"indexed": false,
							"internalType": "uint256",
							"name": "two",
							"type": "uint256"
						},
						{
							"indexed": false,
							"internalType": "uint256",
							"name": "three",
							"type": "uint256"
						}
					],
					"name": "NumberOfNFTs",
					"type": "event"
				},
				{
					"inputs": [],
					"name": "getAvailableNFTs",
					"outputs": [
						{
							"internalType": "uint256",
							"name": "",
							"type": "uint256"
						},
						{
							"internalType": "uint256",
							"name": "",
							"type": "uint256"
						},
						{
							"internalType": "uint256",
							"name": "",
							"type": "uint256"
						}
					],
					"stateMutability": "view",
					"type": "function"
				},
				{
					"inputs": [],
					"name": "mintNFT",
					"outputs": [],
					"stateMutability": "nonpayable",
					"type": "function"
				}
			],
			"devdoc": {
				"kind": "dev",
				"methods": {},
				"version": 1
			},
			"evm": {
				"assembly": "    /* \"contracts/MyNFT.sol\":288:1167  contract MyNFT {... */\n  mstore(0x40, 0x80)\n    /* \"contracts/MyNFT.sol\":670:732  constructor() {... */\n  callvalue\n  dup1\n  iszero\n  tag_1\n  jumpi\n  0x00\n  dup1\n  revert\ntag_1:\n  pop\n    /* \"contracts/MyNFT.sol\":711:724  NFTs(8, 8, 4) */\n  mload(0x40)\n  dup1\n  0x60\n  add\n  0x40\n  mstore\n  dup1\n    /* \"contracts/MyNFT.sol\":716:717  8 */\n  0x08\n    /* \"contracts/MyNFT.sol\":711:724  NFTs(8, 8, 4) */\n  dup2\n  mstore\n  0x20\n  add\n    /* \"contracts/MyNFT.sol\":719:720  8 */\n  0x08\n    /* \"contracts/MyNFT.sol\":711:724  NFTs(8, 8, 4) */\n  dup2\n  mstore\n  0x20\n  add\n    /* \"contracts/MyNFT.sol\":722:723  4 */\n  0x04\n    /* \"contracts/MyNFT.sol\":711:724  NFTs(8, 8, 4) */\n  dup2\n  mstore\n  pop\n    /* \"contracts/MyNFT.sol\":695:708  availableNFTs */\n  0x01\n    /* \"contracts/MyNFT.sol\":695:724  availableNFTs = NFTs(8, 8, 4) */\n  0x00\n  dup3\n  add\n  mload\n  dup2\n  0x00\n  add\n  sstore\n  0x20\n  dup3\n  add\n  mload\n  dup2\n  0x01\n  add\n  sstore\n  0x40\n  dup3\n  add\n  mload\n  dup2\n  0x02\n  add\n  sstore\n  swap1\n  pop\n  pop\n    /* \"contracts/MyNFT.sol\":288:1167  contract MyNFT {... */\n  dataSize(sub_0)\n  dup1\n  dataOffset(sub_0)\n  0x00\n  codecopy\n  0x00\n  return\nstop\n\nsub_0: assembly {\n        /* \"contracts/MyNFT.sol\":288:1167  contract MyNFT {... */\n      mstore(0x40, 0x80)\n      callvalue\n      dup1\n      iszero\n      tag_1\n      jumpi\n      0x00\n      dup1\n      revert\n    tag_1:\n      pop\n      jumpi(tag_2, lt(calldatasize, 0x04))\n      shr(0xe0, calldataload(0x00))\n      dup1\n      0x14f710fe\n      eq\n      tag_3\n      jumpi\n      dup1\n      0x32702c95\n      eq\n      tag_4\n      jumpi\n    tag_2:\n      0x00\n      dup1\n      revert\n        /* \"contracts/MyNFT.sol\":1136:1164  function mintNFT() public {} */\n    tag_3:\n      tag_5\n      tag_6\n      jump\t// in\n    tag_5:\n      stop\n        /* \"contracts/MyNFT.sol\":967:1128  function getAvailableNFTs() public view returns (uint, uint, uint) {... */\n    tag_4:\n      tag_7\n      tag_8\n      jump\t// in\n    tag_7:\n      mload(0x40)\n      tag_9\n      swap4\n      swap3\n      swap2\n      swap1\n      tag_10\n      jump\t// in\n    tag_9:\n      mload(0x40)\n      dup1\n      swap2\n      sub\n      swap1\n      return\n        /* \"contracts/MyNFT.sol\":1136:1164  function mintNFT() public {} */\n    tag_6:\n      jump\t// out\n        /* \"contracts/MyNFT.sol\":967:1128  function getAvailableNFTs() public view returns (uint, uint, uint) {... */\n    tag_8:\n        /* \"contracts/MyNFT.sol\":1016:1020  uint */\n      0x00\n        /* \"contracts/MyNFT.sol\":1022:1026  uint */\n      dup1\n        /* \"contracts/MyNFT.sol\":1028:1032  uint */\n      0x00\n        /* \"contracts/MyNFT.sol\":1053:1066  availableNFTs */\n      0x01\n        /* \"contracts/MyNFT.sol\":1053:1073  availableNFTs.oneEth */\n      0x00\n      add\n      sload\n        /* \"contracts/MyNFT.sol\":1075:1088  availableNFTs */\n      0x01\n        /* \"contracts/MyNFT.sol\":1075:1095  availableNFTs.twoEth */\n      dup1\n      add\n      sload\n        /* \"contracts/MyNFT.sol\":1097:1110  availableNFTs */\n      0x01\n        /* \"contracts/MyNFT.sol\":1097:1119  availableNFTs.threeEth */\n      0x02\n      add\n      sload\n        /* \"contracts/MyNFT.sol\":1045:1120  return (availableNFTs.oneEth, availableNFTs.twoEth, availableNFTs.threeEth) */\n      swap3\n      pop\n      swap3\n      pop\n      swap3\n      pop\n        /* \"contracts/MyNFT.sol\":967:1128  function getAvailableNFTs() public view returns (uint, uint, uint) {... */\n      swap1\n      swap2\n      swap3\n      jump\t// out\n        /* \"#utility.yul\":7:84   */\n    tag_13:\n        /* \"#utility.yul\":44:51   */\n      0x00\n        /* \"#utility.yul\":73:78   */\n      dup2\n        /* \"#utility.yul\":62:78   */\n      swap1\n      pop\n        /* \"#utility.yul\":7:84   */\n      swap2\n      swap1\n      pop\n      jump\t// out\n        /* \"#utility.yul\":90:208   */\n    tag_14:\n        /* \"#utility.yul\":177:201   */\n      tag_18\n        /* \"#utility.yul\":195:200   */\n      dup2\n        /* \"#utility.yul\":177:201   */\n      tag_13\n      jump\t// in\n    tag_18:\n        /* \"#utility.yul\":172:175   */\n      dup3\n        /* \"#utility.yul\":165:202   */\n      mstore\n        /* \"#utility.yul\":90:208   */\n      pop\n      pop\n      jump\t// out\n        /* \"#utility.yul\":214:656   */\n    tag_10:\n        /* \"#utility.yul\":363:367   */\n      0x00\n        /* \"#utility.yul\":401:403   */\n      0x60\n        /* \"#utility.yul\":390:399   */\n      dup3\n        /* \"#utility.yul\":386:404   */\n      add\n        /* \"#utility.yul\":378:404   */\n      swap1\n      pop\n        /* \"#utility.yul\":414:485   */\n      tag_20\n        /* \"#utility.yul\":482:483   */\n      0x00\n        /* \"#utility.yul\":471:480   */\n      dup4\n        /* \"#utility.yul\":467:484   */\n      add\n        /* \"#utility.yul\":458:464   */\n      dup7\n        /* \"#utility.yul\":414:485   */\n      tag_14\n      jump\t// in\n    tag_20:\n        /* \"#utility.yul\":495:567   */\n      tag_21\n        /* \"#utility.yul\":563:565   */\n      0x20\n        /* \"#utility.yul\":552:561   */\n      dup4\n        /* \"#utility.yul\":548:566   */\n      add\n        /* \"#utility.yul\":539:545   */\n      dup6\n        /* \"#utility.yul\":495:567   */\n      tag_14\n      jump\t// in\n    tag_21:\n        /* \"#utility.yul\":577:649   */\n      tag_22\n        /* \"#utility.yul\":645:647   */\n      0x40\n        /* \"#utility.yul\":634:643   */\n      dup4\n        /* \"#utility.yul\":630:648   */\n      add\n        /* \"#utility.yul\":621:627   */\n      dup5\n        /* \"#utility.yul\":577:649   */\n      tag_14\n      jump\t// in\n    tag_22:\n        /* \"#utility.yul\":214:656   */\n      swap5\n      swap4\n      pop\n      pop\n      pop\n      pop\n      jump\t// out\n\n    auxdata: 0xa2646970667358221220e94d3959a6652f8572f55b469d7d32e63b75541d71af1e4b0d173849e1addf3264736f6c634300080f0033\n}\n",
				"bytecode": {
					"linkReferences": {},
					"object": "608060405234801561001057600080fd5b50604051806060016040528060088152602001600881526020016004815250600160008201518160000155602082015181600101556040820151816002015590505060fc806100606000396000f3fe6080604052348015600f57600080fd5b506004361060325760003560e01c806314f710fe14603757806332702c9514603f575b600080fd5b603d605b565b005b6045605d565b6040516052939291906095565b60405180910390f35b565b60008060006001600001546001800154600160020154925092509250909192565b6000819050919050565b608f81607e565b82525050565b600060608201905060a860008301866088565b60b360208301856088565b60be60408301846088565b94935050505056fea2646970667358221220e94d3959a6652f8572f55b469d7d32e63b75541d71af1e4b0d173849e1addf3264736f6c634300080f0033",
					"opcodes": "PUSH1 0x80 PUSH1 0x40 MSTORE CALLVALUE DUP1 ISZERO PUSH2 0x10 JUMPI PUSH1 0x0 DUP1 REVERT JUMPDEST POP PUSH1 0x40 MLOAD DUP1 PUSH1 0x60 ADD PUSH1 0x40 MSTORE DUP1 PUSH1 0x8 DUP2 MSTORE PUSH1 0x20 ADD PUSH1 0x8 DUP2 MSTORE PUSH1 0x20 ADD PUSH1 0x4 DUP2 MSTORE POP PUSH1 0x1 PUSH1 0x0 DUP3 ADD MLOAD DUP2 PUSH1 0x0 ADD SSTORE PUSH1 0x20 DUP3 ADD MLOAD DUP2 PUSH1 0x1 ADD SSTORE PUSH1 0x40 DUP3 ADD MLOAD DUP2 PUSH1 0x2 ADD SSTORE SWAP1 POP POP PUSH1 0xFC DUP1 PUSH2 0x60 PUSH1 0x0 CODECOPY PUSH1 0x0 RETURN INVALID PUSH1 0x80 PUSH1 0x40 MSTORE CALLVALUE DUP1 ISZERO PUSH1 0xF JUMPI PUSH1 0x0 DUP1 REVERT JUMPDEST POP PUSH1 0x4 CALLDATASIZE LT PUSH1 0x32 JUMPI PUSH1 0x0 CALLDATALOAD PUSH1 0xE0 SHR DUP1 PUSH4 0x14F710FE EQ PUSH1 0x37 JUMPI DUP1 PUSH4 0x32702C95 EQ PUSH1 0x3F JUMPI JUMPDEST PUSH1 0x0 DUP1 REVERT JUMPDEST PUSH1 0x3D PUSH1 0x5B JUMP JUMPDEST STOP JUMPDEST PUSH1 0x45 PUSH1 0x5D JUMP JUMPDEST PUSH1 0x40 MLOAD PUSH1 0x52 SWAP4 SWAP3 SWAP2 SWAP1 PUSH1 0x95 JUMP JUMPDEST PUSH1 0x40 MLOAD DUP1 SWAP2 SUB SWAP1 RETURN JUMPDEST JUMP JUMPDEST PUSH1 0x0 DUP1 PUSH1 0x0 PUSH1 0x1 PUSH1 0x0 ADD SLOAD PUSH1 0x1 DUP1 ADD SLOAD PUSH1 0x1 PUSH1 0x2 ADD SLOAD SWAP3 POP SWAP3 POP SWAP3 POP SWAP1 SWAP2 SWAP3 JUMP JUMPDEST PUSH1 0x0 DUP2 SWAP1 POP SWAP2 SWAP1 POP JUMP JUMPDEST PUSH1 0x8F DUP2 PUSH1 0x7E JUMP JUMPDEST DUP3 MSTORE POP POP JUMP JUMPDEST PUSH1 0x0 PUSH1 0x60 DUP3 ADD SWAP1 POP PUSH1 0xA8 PUSH1 0x0 DUP4 ADD DUP7 PUSH1 0x88 JUMP JUMPDEST PUSH1 0xB3 PUSH1 0x20 DUP4 ADD DUP6 PUSH1 0x88 JUMP JUMPDEST PUSH1 0xBE PUSH1 0x40 DUP4 ADD DUP5 PUSH1 0x88 JUMP JUMPDEST SWAP5 SWAP4 POP POP POP POP JUMP INVALID LOG2 PUSH5 0x6970667358 0x22 SLT KECCAK256 0xE9 0x4D CODECOPY MSIZE 0xA6 PUSH6 0x2F8572F55B46 SWAP14 PUSH30 0x32E63B75541D71AF1E4B0D173849E1ADDF3264736F6C634300080F003300 "
				},
				"gasEstimates": {
					"creation": {
						"codeDepositCost": "50400",
						"executionCost": "66537",
						"totalCost": "116937"
					},
					"external": {
						"getAvailableNFTs()": "infinite",
						"mintNFT()": "122"
					}
				},
				"methodIdentifiers": {
					"getAvailableNFTs()": "32702c95",
					"mintNFT()": "14f710fe"
				}
			},
			"storageLayout": {
				"storage": [
					{
						"astId": 33,
						"contract": "contracts/MyNFT.sol:MyNFT",
						"label": "tokenId",
						"offset": 0,
						"slot": "0",
						"type": "t_uint256"
					},
					{
						"astId": 36,
						"contract": "contracts/MyNFT.sol:MyNFT",
						"label": "availableNFTs",
						"offset": 0,
						"slot": "1",
						"type": "t_struct(NFTs)19_storage"
					},
					{
						"astId": 43,
						"contract": "contracts/MyNFT.sol:MyNFT",
						"label": "tokensAtAddress",
						"offset": 0,
						"slot": "4",
						"type": "t_mapping(t_address,t_mapping(t_uint256,t_struct(TokenMetaData)12_storage))"
					}
				],
				"types": {
					"t_address": {
						"encoding": "inplace",
						"label": "address",
						"numberOfBytes": "20"
					},
					"t_mapping(t_address,t_mapping(t_uint256,t_struct(TokenMetaData)12_storage))": {
						"encoding": "mapping",
						"key": "t_address",
						"label": "mapping(address => mapping(uint256 => struct MyNFT.TokenMetaData))",
						"numberOfBytes": "32",
						"value": "t_mapping(t_uint256,t_struct(TokenMetaData)12_storage)"
					},
					"t_mapping(t_uint256,t_struct(TokenMetaData)12_storage)": {
						"encoding": "mapping",
						"key": "t_uint256",
						"label": "mapping(uint256 => struct MyNFT.TokenMetaData)",
						"numberOfBytes": "32",
						"value": "t_struct(TokenMetaData)12_storage"
					},
					"t_string_storage": {
						"encoding": "bytes",
						"label": "string",
						"numberOfBytes": "32"
					},
					"t_struct(NFTs)19_storage": {
						"encoding": "inplace",
						"label": "struct MyNFT.NFTs",
						"members": [
							{
								"astId": 14,
								"contract": "contracts/MyNFT.sol:MyNFT",
								"label": "oneEth",
								"offset": 0,
								"slot": "0",
								"type": "t_uint256"
							},
							{
								"astId": 16,
								"contract": "contracts/MyNFT.sol:MyNFT",
								"label": "twoEth",
								"offset": 0,
								"slot": "1",
								"type": "t_uint256"
							},
							{
								"astId": 18,
								"contract": "contracts/MyNFT.sol:MyNFT",
								"label": "threeEth",
								"offset": 0,
								"slot": "2",
								"type": "t_uint256"
							}
						],
						"numberOfBytes": "96"
					},
					"t_struct(TokenMetaData)12_storage": {
						"encoding": "inplace",
						"label": "struct MyNFT.TokenMetaData",
						"members": [
							{
								"astId": 5,
								"contract": "contracts/MyNFT.sol:MyNFT",
								"label": "_tokenId",
								"offset": 0,
								"slot": "0",
								"type": "t_uint256"
							},
							{
								"astId": 7,
								"contract": "contracts/MyNFT.sol:MyNFT",
								"label": "timeStamp",
								"offset": 0,
								"slot": "1",
								"type": "t_uint256"
							},
							{
								"astId": 9,
								"contract": "contracts/MyNFT.sol:MyNFT",
								"label": "_url",
								"offset": 0,
								"slot": "2",
								"type": "t_string_storage"
							},
							{
								"astId": 11,
								"contract": "contracts/MyNFT.sol:MyNFT",
								"label": "_creator",
								"offset": 0,
								"slot": "3",
								"type": "t_uint256"
							}
						],
						"numberOfBytes": "128"
					},
					"t_uint256": {
						"encoding": "inplace",
						"label": "uint256",
						"numberOfBytes": "32"
					}
				}
			},
			"userdoc": {
				"kind": "user",
				"methods": {},
				"version": 1
			}
		}
	}
}